:1000000012C0189518951895189518951895189563
:100010001895189518951895189518951895189578
:100020001895189518958FE58DBFC8E3E0E24E2E20
:1000300084E08EBFD4E0F4E05F2EA89584B7082E4C
:10004000877F84BF88E1992781BD91BDEEEFF3E002
:10005000A0E6B0E088278D933197E9F78CE089B965
:1000600080E080BD88E18AB96624B89AB99A74B7ED
:10007000777F74BF8BE181BD83E081BD86E886B95F
:1000800080E487B9379AE0E0F0E0A0E1B0E033D453
:10009000003281E008F480E08F93E0E0F0E0A0E13E
:1000A000B0E029D40D3781E010F009F080E09F9195
:1000B0008923882309F406C0E0E0F0E0AFE9B0E06E
:1000C0001AD403C080E280939F00A0EAB0E0EFE979
:1000D000F0E0B4D381B5886081BD70919700716004
:1000E0007093970000919F00003209F005C0709155
:1000F0009700726070939700DFD2AFE7B0E08C9307
:1001000000917F00013009F01CC0DAD2A0E8B0E015
:100110008C9340919F0000918000041781E009F0CA
:1001200080E08F93009180000E3781E009F080E03D
:100130009F91892B882309F404C08BEC8093910054
:100140002CC000919100003010F009F001C005C0F2
:100150008091910081508093910000919100083C22
:1001600009F001C0C19A00919100003009F001C06E
:10017000C19800919700003009F002C0C09A02C0F7
:10018000C098C19AA895EF93FF93E0E6F0E0B5D24E
:10019000FF91EF91B1CFF894FFCFCDD3A1E8B0E0BC
:1001A000E9E077D2C5D382E0E1E8F0E001E00A932C
:1001B000ADE8B0E07AD384E0E1E8F0E001E00A9352
:1001C000AFE8B0E072D386E0E1E8F0E004E00A9343
:1001D000A2E9B0E06AD3A2E9B0E048D3ABE8B0E06E
:1001E0000D931C93ADE8B0E0ECE3F9E08ED309F099
:1001F00025C0AFE8B0E0EEE3F9E087D309F01DC019
:1002000080E090E0A8E9B0E08D939C93AAE9B0E08B
:10021000E8E9F0E015D3E0EAF0E0A0E6B0E040D392
:10022000A0E6B0E02DD2E0E4F9E08AD2EAE9F0E01D
:10023000A0E6B0E025D234D307D25ECFADE8B0E07F
:10024000E6E4F9E062D309F071C0AFE8B0E0EEE3B4
:10025000F9E05BD309F01EC080E090E0A8E9B0E0CF
:100260008D939C93AAE9B0E0E8E9F0E0E9D2E0EAF6
:10027000F0E0A0E6B0E014D3A0E6B0E001D2E8E4FC
:10028000F9E05ED2EAE9F0E0A0E6B0E0F9D108D307
:10029000DBD14BC0EEE4F9E038D309F021C007B15F
:1002A000007F006007B951D2A8E9B0E08D939C931C
:1002B000AAE9B0E0E8E9F0E0C3D2E0EAF0E0A0E6C5
:1002C000B0E0EED2A0E6B0E0DBD1E0E5F9E038D274
:1002D000EAE9F0E0A0E6B0E0D3D1E2D2B5D125C0A2
:1002E000E6E5F9E012D309F020C007B1007F016014
:1002F00007B92BD2A8E9B0E08D939C93AAE9B0E0AE
:10030000E8E9F0E09DD2E0EAF0E0A0E6B0E0C8D293
:10031000A0E6B0E0B5D1E8E5F9E012D2EAE9F0E014
:10032000A0E6B0E0ADD1BCD28FD1E6CEADE8B0E072
:10033000EEE5F9E0EAD209F010C1AFE8B0E0EEE393
:10034000F9E0E3D209F051C0A2E9B0E08C9180302D
:1003500009F433C0ABE8B0E00D911C91073050E0D8
:10036000150710F009F001C006C087E090E0ABE887
:10037000B0E08D939C93ABE8B0E00C9100FB0EF0E5
:1003800005C0709197007E7F70939700ABE8B0E056
:100390000C9101FB0EF005C0709197007D7F70936A
:1003A0009700ABE8B0E00C9102FB0EF006C0A7E9A5
:1003B000B0E08C9194E089278C93AAE9B0E0E7E95A
:1003C000F0E03CD2E0EAF0E0A0E6B0E069D2A0E6DE
:1003D000B0E056D1E0E6F9E0B3D1EAE9F0E0A0E61A
:1003E000B0E04ED15DD230D1B7C0EEE4F9E08DD2AD
:1003F00009F00DC0E0EAF0E0A0E6B0E051D2A0E6DE
:10040000B0E03ED1E6E6F9E09BD11ED1A5C0E6E51D
:10041000F9E07BD209F00DC0E0EAF0E0A0E6B0E040
:100420003FD2A0E6B0E02CD1E0E7F9E089D10CD1D1
:1004300093C0EAE7F9E069D209F018C0A4EAB0E095
:10044000ECE7F9E07DD1E0EAF0E0A0E6B0E028D208
:10045000A0E6B0E015D1E2E8F9E072D1E4EAF0E01C
:10046000A0E6B0E00DD11CD2EFD076C0E8E8F9E00C
:100470004CD209F018C0A4EAB0E0EAE8F9E060D193
:10048000E0EAF0E0A0E6B0E00BD2A0E6B0E0F8D001
:10049000EEE9F9E055D1E4EAF0E0A0E6B0E0F0D012
:1004A000FFD1D2D059C0E4EAF9E02FD209F00DC053
:1004B000E0EAF0E0A0E6B0E0F3D1A0E6B0E0E0D002
:1004C000E6EAF9E03DD1C0D047C0E2EBF9E01DD249
:1004D00009F00DC0E0EAF0E0A0E6B0E0E1D1A0E66E
:1004E000B0E0CED0E4EBF9E02BD1AED035C0E0ECFB
:1004F000F9E00BD209F00DC0E0EAF0E0A0E6B0E0D0
:10050000CFD1A0E6B0E0BCD0E2ECF9E019D19CD0AC
:1005100023C0ECECF9E0F9D109F00DC0E0EAF0E01D
:10052000A0E6B0E0BDD1A0E6B0E0AAD0EEECF9E0E4
:1005300007D18AD011C0E8EDF9E0E7D109F00CC08D
:10054000E0EAF0E0A0E6B0E0ABD1A0E6B0E098D001
:10055000EAEDF9E0F5D078D0CFCDADE8B0E0E4EE4B
:10056000F9E0D3D109F06DC0AFE8B0E0EEE3F9E017
:10057000CCD109F010C0E0EAF0E0A0E6B0E090D104
:10058000A0E6B0E07DD0E6EEF9E0DAD05DD0E1E0C3
:10059000F0E0ADD055C0EEE4F9E0B7D109F050C0BD
:1005A000ABE8B0E00D911C91003250E0150781E0FE
:1005B00008F480E08F93ABE8B0E00D911C910D370B
:1005C00050E0150781E010F009F080E09F91892349
:1005D000882309F40BC0E0E0F0E0ABE8B0E07BE793
:1005E00079D1E0E0F0E0AFE9B0E085D1E0EAF0E019
:1005F000A0E6B0E055D1A0E6B0E042D0E0EFF9E0EF
:100600009FD0A0E6B0E03CD0EFE9F0E017D11CD0DD
:1006100081E090D0A881B981EFE9F0E00FD1E881C5
:10062000F981A0EAB0E073D10FB681E0481A80E00A
:10063000580A22960FBE09F403C0E1E0F0E057D05B
:100640005BCD5ACDF894FFCFA0E6B0E091D0A3EAFD
:10065000B0E08C93E0E6F0E0A8E0B4E021D1A8E0BF
:10066000B4E00ED0E8EFF9E06BD0A8E0B4E008D039
:10067000E3EAF0E09DD02CD033D00895F894FFCF7A
:100680008F938D918823E9F711978F910895A8E0B2
:10069000B4E01AD08D3039F0EE23D9F38D93EA957A
:1006A00063FE21D0F6CF63FC04C08DE01CD08AE04D
:1006B0001AD088278C93089581E05F9B882708953E
:1006C00088275F9B089500C05F9BFECF8CB1089583
:1006D000A8E0B4E08D91882311F005D0FBCF0895F8
:1006E0008DE001D08AE05D9BFECF8CB9089588EE45
:1006F00093E00CD03197D9F708953197F1F7089529
:10070000689462F80895E89462F80895EF93FF936F
:10071000EE27E82BE92B31F0E0EDF7E03197F1F728
:100720000197D1F7FF91EF910895019111912191D6
:100730003081089599275A924A92480E591E089579
:100740000DD00D920020E1F70895369A3699FECF2C
:10075000369A3699FECF84B195B10895C8953196F1
:1007600000200895813618F08B3708F48F7D0895A6
:1007700088279D91890F9923E1F70895000F111F94
:10078000221F331F089500951095209530950F5F17
:100790001F4F2F4F3F4F0895019110810BC0C5DFB0
:1007A0000BC00191108117FF05C03FEF2FEF04C070
:1007B000008111272227332737FF03C0E4DF8DE2B2
:1007C0008D93CF92DF92EF92AA24BB24CC24DD2418
:1007D000EE2440E2EAE0FF2755E093E38081890FB1
:1007E00087FD9F7083FD907F891B81935A95A9F7A0
:1007F000C5DFAA1CBB1CCC1CDD1CEE1C4A9551F7A6
:10080000E894EFE0FF2782910CD0EB30E0F71EF088
:1008100068948A2D0AD088278D93EF90DF90CF902F
:100820000895982F829501D0892F8F70805D26F0D2
:10083000803309F4089568948D93089541E003C0CE
:1008400042E001C044E0E40F8827F81F8291982F0E
:10085000829505D0892F03D04A95C1F71EC08F70AD
:100860008A3008F0895F805D8D93089500271127F5
:10087000222733278D91882379F080DF7FDF7EDF89
:100880007DDF70DF815408F4895F865F080F882759
:10089000181F281F381FEECF089588278D930895BD
:1008A00081918D938823E1F708950991919199237E
:1008B00051F08A95D9F73197002329F081918D93D2
:1008C0000A958823C9F7E9CFE199FECFEEBBFFBBBC
:1008D0003196089591E001C092E07B3751F47FB7E3
:1008E000F894F2DF8D918DBBE29AE19A9A95C9F75F
:1008F0007FBF7727089591E001C092E0E5DFE09A9D
:100900008DB38D939A95D1F70895689401C0E894BA
:10091000AF93BF938D9116F0919102C01FDF902D80
:10092000891718F011F48823A9F7BF91AF910895A2
:10093000E89463F80895689463F808956F003000B0
:100940002C6F2C303A0069002C692C303A003100B1
:100950002C692C313A0032002C692C323A00730099
:100960002C732C303A002C732C313A313331000087
:100970002C732C323A4F4D5532003300312E302E2D
:1009800034002C732C333A00340030312D31302DAB
:10099000323032302030303A31303A3534002C7336
:1009A0002C343A0035002C732C353A312E302E3051
:1009B000000036002C732C363A322E312E310000D6
:1009C00037002C732C373A303030300038002C731D
:1009D0002C383A303230410039002C732C393A30FF
:1009E0003030300075002C752C303A30303031000A
:0A09F0002C752C313A303000230042
:00000001FF
